S01000004C616232457870312E7372656375
S11300000C942A000C9434000C9434000C943400A6
S11300100C9434000C9434000C9434000C9434008C
S11300200C9434000C9434000C9434000C9434007C
S11300300C9434000C9434000C9434000C9434006C
S11300400C9434000C9434000C9434000C9434005C
S11300500C94340011241FBECFE5D8E0DEBFCDBF21
S11300600E9436000C949B000C9400008FEF8ABB16
S113007087BB11BA82BB9FEF42E939E826E850EF0B
S11300806EEF80B38E3FA9F46BBB7FE38DE0E3E0BA
S113009071508040E040E1F700C000009BBB7FE36B
S11300A08DE0E3E071508040E040E1F700C00000E3
S11300B0E8CF80B38D3FA9F45BBB7FE38DE0E3E041
S11300C071508040E040E1F700C000009BBB7FE33B
S11300D08DE0E3E071508040E040E1F700C00000B3
S11300E0D0CF9BBB48BB7FE38DE0E3E07150804001
S11300F0E040E1F700C0000038BB7FE38DE0E3E0BF
S113010071508040E040E1F700C0000028BB7FE36D
S11301108DE0E3E071508040E040E1F700C0000072
S113012098BB7FE38DE0E3E071508040E040E1F76D
S10D013000C00000A6CFF894FFCF32
S9030000FC
