:100000000C9455000C945F000C945F000C945F00FE
:100010000C945F000C945F000C945F000C945F00E4
:100020000C945F000C945F000C945F000C945F00D4
:100030000C945F000C945F000C945F000C945F00C4
:100040000C945F000C945F000C945F000C945F00B4
:100050000C945F00C500C700C900CB00CD00CF00E5
:10006000D100D300D500D700D900D900D900D900DC
:10007000D900D900D900DB009300950097009900C2
:100080009B009D009F00A100A300A500A700A90060
:10009000AB00AD00AF00B100B300B500B700B900D0
:1000A000BB00BD00BF00C100C30011241FBECFE5CF
:1000B000D8E0DEBFCDBF0E947D010C9490010C946E
:1000C0000000CF93DF931F92CDB7DEB78DE382BFE1
:1000D00085E083BF88B78170898389818823D1F3C4
:1000E000998188B7892B88BF0F90DF91CF910895B0
:1000F000CF93DF93EC010E9461000E94610028977A
:1001000021F40E9461000E946100DF91CF91089567
:1001100090E0FC01F097EB32F10508F04AC0E65D93
:10012000FF4F0C948A0183E847C086EC45C081EA02
:1001300043C086E841C08EE83FC080E93DC089E801
:100140003BC08FEC39C081EE37C089E835C087EC01
:1001500033C08AEE31C08BEA2FC080EC2DC08CE812
:100160002BC088E929C08FEA27C082E925C087E82B
:1001700023C081EC21C083EE1FC085ED1DC089E83E
:100180001BC081E919C084EA17C080EC15C086E85D
:1001900013C084EA11C080EB0FC089E90DC082E969
:1001A0000BC082E809C088EF07C080E805C080E97D
:1001B00003C08FEB01C088E888BB089583E50E94E7
:1001C000880088E090E00E9478008BE40E9488001C
:1001D00088E090E00E94780085E40E94880088E032
:1001E00090E00E94780085E40E94880088E090E01A
:1001F0000E94780083E30E94880088E090E00E94DB
:10020000780087E30E94880088E090E00E947800F0
:1002100083E30E94880088E090E00E94780082E3F7
:100220000E94880088E090E00E9478008DE20E94A1
:10023000880088E090E00E94780083E30E948800B4
:1002400088E090E00E94780080E30E94880088E0C7
:1002500090E00E94780084E30E94880088E090E0AB
:100260000E947800089583E38BBB84E090E00E94B5
:1002700078008CEC8BBB84E090E00E9478000895BD
:100280001F93CF93DF93C7EECBBB84E090E00E9437
:100290007800DBEDDBBB84E090E00E9478001DEB92
:1002A0001BBB84E090E00E9478008EE78BBB84E06B
:1002B00090E00E9478001BBB84E090E00E947800F0
:1002C000DBBB84E090E00E947800CBBB84E090E050
:1002D0000E947800DF91CF911F91089580B38B3FEA
:1002E00019F40E943301089580B3873F19F40E94E6
:1002F000400108950E94DE0008958FEF8ABB87BBFE
:1003000011BA82BB8BBB88BB80B38F3FE9F30E94DD
:100310006E01FDCFEE0FFF1F0590F491E02D0994C3
:04032000F894FFCF7F
:00000001FF
